:1000000014C01BC01AC019C018C017C016C015C034
:1000100014C013C012C011C010C00FC00EC00DC05C
:100020000CC00BC01DC009C008C011241FBECFE505
:10003000D2E0DEBFCDBF37D04CC0E2CF82E88FBD6B
:1000400089E18EBD89E190E097BD86BD8CE090E0AE
:100050009BBD8ABD089510BC89E189B9539A089562
:100060001F920F920FB60F9211248F939F9388B314
:1000700091E0892788BB8AE05E9A04B606FE02C03A
:1000800091EB01C094E89CB95E9BFECF8150A1F733
:1000900084B790E4892784BF9F918F910F900FBE02
:1000A0000F901F90189581E087BB90E291BB85B7B8
:1000B0008F7485BF84B7806484BF9BBF7894BEDF94
:1000C000CADF85B7806485BF889585B78F7B85BF7C
:0600D000F8CFF894FFCF09
:00000001FF
