:1000000014C026C025C024C023C022C021C020C0E7
:100010001FC01EC01DC01CC01BC01AC019C018C004
:1000200017C016C015C014C013C011241FBECFE5E1
:10003000D2E0DEBFCDBF10E0A0E6B0E0E4E1F2E048
:1000400002C005900D92A03BB107D9F79DD0E0C04A
:10005000D7CFC29A000000000000C29808951ABAD3
:10006000C098C19A01C0F5DFDF99FDCF8FEF8ABB41
:100070000895CF93DF931F92CDB7DEB78983EFDF6B
:1000800089818BBBC09AC1980F90DF91CF91E1CF4E
:10009000CF93DF931F92CDB7DEB78983E0DF8981ED
:1000A0008BBBC098C198D5DF1BBA0F90DF91CF9161
:1000B00008958430A1F4613041F4473011F480E2B6
:1000C00023C04A3011F584E21FC06230F1F447309A
:1000D00011F488E219C04A30C1F48CE215C08830AE
:1000E000A1F4613041F4473011F480E30DC04A308F
:1000F00061F484E309C0623041F4473011F488E3CD
:1001000003C04A3011F48CE3C3CF08958FEF8ABB4C
:1001100087BB81E0BDDF83EF91E00197F1F700C07D
:10012000000088E3B5DF90E19A95F1F700C08CE01C
:10013000AFDF80E18A95F1F700C00895805CA8CF19
:10014000EF92FF921F93CF93DF9300D0CDB7DEB72E
:10015000880F880F880F69837A83F0DF6981E62E24
:100160007A81F72E18E0F70181917F0182DF11502B
:10017000D1F780E80F900F90DF91CF911F91FF9002
:10018000EF9086CF805884CFC1DF68E970E080E0CF
:10019000D7DF60E970E081E0D3DF68E870E082E0FB
:1001A000CFDF60E870E083E0CBDF68E770E084E0F9
:1001B000C7DF60E770E085E0C3DF68E670E086E0F7
:1001C000BFDF60E670E087E0BBDFC0E002C051DF68
:1001D000CF5FEC2FF0E0E056FF4F80818111F7CF29
:1001E00080EC56DF1BBA80E18A95F1F700C080E011
:1001F00040DF81E03EDF82E03CDF83E03ADF84E005
:1002000038DF85E036DF86E034DF87E032DFFFCF9E
:04021000F894FFCF90
:10021400001B1B00110A04000E1F1F1F1F1F1F1F9E
:100224000E1B1F1F1F1F1F1F0E1B111F1F1F1F1F12
:100234000E1B11111F1F1F1F0E1B1111111F1F1F3A
:100244000E1B111111111F1F0E1B11111111111F62
:1002540042617474657279206C6576656C733A00DA
:00000001FF
