:1000000014C026C025C024C023C022C021C020C0E7
:100010001FC01EC01DC01CC01BC01AC019C018C004
:1000200017C016C015C014C013C011241FBECFE5E1
:10003000D2E0DEBFCDBF10E0A0E6B0E0E8E9F1E03D
:1000400002C005900D92AC3AB107D9F779D0A2C0A1
:10005000D7CFC29A000000000000C29808951ABAD3
:10006000C098C19A01C0F5DFDF99FDCF8FEF8ABB41
:100070000895CF93DF931F92CDB7DEB78983EFDF6B
:1000800089818BBBC09AC1980F90DF91CF91E1CF4E
:10009000CF93DF931F92CDB7DEB78983E0DF8981ED
:1000A0008BBBC098C1980F90DF91CF91D2CF843095
:1000B000A1F4613041F4473011F480E223C04A30AA
:1000C00011F584E21FC06230F1F4473011F488E288
:1000D00019C04A30C1F48CE215C08830A1F46130F7
:1000E00041F4473011F480E30DC04A3061F484E3F9
:1000F00009C0623041F4473011F488E303C04A304C
:1001000011F48CE3C5CF08958FEF8ABB87BB81E0E4
:10011000BFDF83EF91E00197F1F700C0000088E3B3
:10012000B7DF90E19A95F1F700C08CE0B1DF80E194
:100130008A95F1F700C00895805CAACF8058A8CFB7
:10014000E3DFC0E002C095DFCF5FEC2FF0E0EA57BD
:10015000FF4F80818111F7CF80EC9ADF1BBA20E13D
:100160002A95F1F700C0C0E002C083DFCF5FEC2F1B
:10017000F0E0E05AFF4F80818111F7CF8FE996E8D8
:1001800021E0815090402040E1F700C0000088E16C
:080190007FDFF4CFF894FFCFEC
:100198005365636F6E64206C696E65202D2D206138
:1001A8006464726573736573203078343020746FBB
:1001B8002030783638004669727374206C696E6531
:1001C800202D2D2061646472657373657320307807
:0C01D800303020746F2030783238000086
:00000001FF
