:1000000014C023C022C021C020C094C11EC01DC086
:100010001CC01BC01AC019C018C017C016C015C01C
:1000200014C013C012C011C010C011241FBECFE5F0
:10003000D2E0DEBFCDBF10E0A0E6B0E001C01D926F
:10004000A63CB107E1F78ED107C2DACFC29A000011
:1000500000000000C29808951ABAC098C19A01C061
:10006000F5DFDF99FDCF8FEF8ABB0895CF93DF9344
:100070001F92CDB7DEB78983EFDF89818BBBC09A32
:10008000C1980F90DF91CF91E1CFCF93DF931F9273
:10009000CDB7DEB78983E0DF89818BBBC098C1987B
:1000A000D5DF1BBA0F90DF91CF9108958430A1F472
:1000B000613041F4473011F480E223C04A3011F539
:1000C00084E21FC06230F1F4473011F488E219C0B5
:1000D0004A30C1F48CE215C08830A1F4613041F49B
:1000E000473011F480E30DC04A3061F484E309C065
:1000F000623041F4473011F488E303C04A3011F410
:100100008CE3C3CF08958FEF8ABB87BB81E0BDDF4F
:1001100083EF91E00197F1F700C0000088E3B5DFBD
:1001200090E19A95F1F700C08FE0AFDF80E18A950A
:10013000F1F700C00895CF93DF93A0E6B0E0FC0193
:10014000C8E8D0E088818D938191899380E0A838B8
:10015000B807C1F781E099DF83EF91E00197F1F7EC
:1001600000C0000080E891DFC0E002C07FDFCF5F09
:10017000EC2FF0E0E05AFF4F80818111F7CF80EC47
:1001800084DFC0E002C072DFCF5FEC2FF0E0E85701
:10019000FF4F80818111F7CFDF91CF910895805C6F
:1001A00074CFEF92FF921F93CF93DF9300D0CDB720
:1001B000DEB7880F880F880F69837A83F0DF698143
:1001C000E62E7A81F72E18E0F70181917F014EDF4C
:1001D0001150D1F780E80F900F90DF91CF911F91D0
:1001E000FF90EF9052CF805850CF81E48EBD80E2D7
:1001F00089BF08950F931F931DBC1CBC85B78064F5
:1002000085BF889585B78F7B85BF8091B40090911D
:10021000B500803A9F40D8F08091B4009091B5002D
:1002200089389341A0F41DBC1CBC85B7806485BF90
:10023000889585B78F7B85BF8091B4009091B5007C
:10024000803A9F4020F08091B4009091B50040E04A
:1002500050E061E070E01DBC1CBC85B7806485BFC8
:10026000889585B78F7B85BF8091B4009091B5004C
:10027000CC9708F44DC08091B4009091B5008532C0
:10028000944008F045C01DBC1CBC85B7806485BF88
:10029000889585B78F7B85BF8091B4009091B5001C
:1002A000CC97C8F08091B4009091B500853294400D
:1002B00090F4CB01042E02C0880F991F0A94E2F734
:1002C00080959095AA2797FDA095BA2F082319230A
:1002D0002A233B231DC08091B4009091B500863A3B
:1002E0009440B0F08091B4009091B5008F38984060
:1002F00078F4CB01042E02C0880F991F0A94E2F70C
:10030000AA2797FDA095BA2F082B192B2A2B3B2B38
:100310004F5F5F4F4032510509F09DCF85B7806434
:1003200085BF889585B78F7B85BFB801C9011F91AF
:100330000F9108951F920F920FB60F9211248F9371
:100340009F9386B597B59093B5008093B4008EB512
:1003500090E489278EBD9F918F910F900FBE0F90D3
:100360001F90189542DFCFDE85B78F7485BF7894D4
:100370008FE493EC0197F1F700C0000085B780642B
:1003800085BF889585B78F7B85BF34DF6093B000CC
:100390007093B1008093B2009093B30020E130E0FD
:1003A00046EB50E004D086EB90E0C5DEE7CFFA01E3
:1003B000CF93FF93EF932230C4F02532B4F4C22FD1
:1003C0002C2F332744275527FF93EF9323D0EF910A
:1003D000FF91605D6A330CF0695D6193B901CA01F8
:1003E000605070408040904059F710828F919F91EB
:1003F000CF9100C0DC01FC01672F71917723E1F7F9
:10040000329704C07C916D9370836291AE17BF07E1
:10041000C8F30895A1E21A2EAA1BBB1BFD010DC053
:10042000AA1FBB1FEE1FFF1FA217B307E407F507A4
:1004300020F0A21BB30BE40BF50B661F771F881F80
:10044000991F1A9469F760957095809590959B0116
:0C045000AC01BD01CF010895F894FFCF6E
:00000001FF
