:1000000014C01BC01AC019C018C017C016C015C034
:1000100014C013C012C011C010C00FC00EC00DC05C
:100020000CC00BC068C009C008C011241FBECFE5BA
:10003000D2E0DEBFCDBF8AD09EC0E2CF82E88FBDC6
:1000400089E18EBD89E190E097BD86BD8CE090E0AE
:100050009BBD8ABD0895A89A8AEB8A95F1F700C0E6
:10006000A89889EF90E00197F1F700C0000008958B
:10007000A89A8AEB8A95F1F700C0A8988AEB8A952E
:10008000F1F700C008950F931F93CF93DF9300D033
:1000900000D0CDB7DEB769837A838B839C83A89A1F
:1000A00087EE93E00197F1F700C00000A89887EE73
:1000B00093E00197F1F700C0000000E010E08981B3
:1000C00090E0002E02C0959587950A94E2F780FF94
:1000D00002C0C1DF01C0CCDF0F5F1F4F003211052E
:1000E00071F7C6DF0F900F900F900F90DF91CF91B7
:1000F0001F910F9108951F920F920FB60F92112426
:100100002F933F934F935F936F937F938F939F931F
:10011000AF93BF93EF93FF93F894A99A61E070E0D7
:100120008CEC9FEFB0DFA9987894FF91EF91BF918D
:10013000AF919F918F917F916F915F914F913F917F
:100140002F910F900FBE0F901F90189584B383606E
:1001500084BB74DF85B78F7485BF84B7806484BF28
:1001600080E28BBF789485B7806485BF889585B71A
:0A0170008F7B85BFF8CFF894FFCF16
:00000001FF
