:100000000C942A000C9434000C9434000C943400AA
:100010000C9434000C9434000C9434000C94340090
:100020000C9434000C9434000C9434000C94340080
:100030000C9434000C9434000C9434000C94340070
:100040000C9434000C9434000C9434000C94340060
:100050000C94340011241FBECFE5D4E0DEBFCDBF29
:100060000E9436000C94B8000C9400001ABA8AB3AF
:10007000806E8ABB8FEF87BB84BB81BB8BB38F61E4
:100080008BBB84B7806884BF84B7806884BF9FEFD0
:10009000E9EFF0E03197F1F700C000008BB3806E1C
:1000A0008BBB98BB95BB92BB89B38F718D3090F59C
:1000B0008730D0F4843070F4823030F4811102C083
:1000C000DD98E6CFDE98E4CF823011F4DF98E0CF00
:1000D000C098DECF843011F4C198DACF853011F4A6
:1000E000C298D6CFC398D4CF8A3050F4873011F459
:1000F000C498CECF883011F4C598CACFC698C8CF5F
:100100008C3031F08A3011F4C798C2CFA898C0CF94
:10011000A998BECF8331B0F4803150F48D3011F402
:10012000AB98B6CF8E3011F4AC98B2CFAD98B0CFBB
:10013000803111F4AE98ACCF813111F4AF98A8CFD3
:100140009098A6CF863150F4833111F49198A0CFC6
:10015000843111F492989CCF93989ACF863111F400
:10016000949896CF873111F4959892CF969890CF26
:04017000F894FFCF31
:00000001FF
