:100000000C942A000C9434000C9434000C943400AA
:100010000C9434000C9434000C9434000C94340090
:100020000C9434000C9434000C9434000C94340080
:100030000C9434000C9434000C9434000C94340070
:100040000C9434000C9434000C9434000C94340060
:100050000C94340011241FBECFE5D4E0DEBFCDBF29
:100060000E9436000C9443000C940000B89AC0988B
:1000700091E088B3892788BBE7EAF1E63197F1F789
:0A00800000C00000F6CFF894FFCF97
:00000001FF
