:1000000012C0B1C0CFC01FC01EC01DC01CC01BC0CD
:100010001AC019C018C017C016C015C014C013C02C
:1000200012C011C010C011241FBECFE5D4E0DEBF46
:10003000CDBF10E0A0E6B0E001C01D92A436B1072C
:10004000E1F702D0DEC0DCCFFF920F931F93CF9376
:10005000DF9381EF87BB8DE081BB8EE088BB81E0C1
:1000600082BB8BB7806C8BBF85B7826085BF78946D
:10007000C0E0D0E0A0E0B0E009E110E064ED70E3A2
:1000800080E4F82E40E050E038C0F8013197F1F7F5
:100090000197D9F790B380B320E030E081609817E2
:1000A00011F421E030E021303105F9F488B38F25D7
:1000B00088BBCB010197F1F788B38F2588BB80916E
:1000C00060009091610001979093610080936000BF
:1000D0008091600090916100892B39F4C698C49A90
:1000E000CB010197F1F7C49803C0CB010197F1F759
:1000F0004F5F5F4F4C33510519F088E293E2C5CF53
:10010000C09A88E293E2F8013197F1F70197D9F7A5
:10011000C0982196CC33D10519F41196C0E0D0E0F7
:10012000AD30B10511F4A0E0B0E0CE31D10549F415
:10013000A530B10531F4C49ACB010197F1F7C49809
:1001400003C0CB010197F1F796B386B38E60981781
:1001500031F4C59ACB010197F1F7C59893CFCB0144
:100160000197F1F78FCF1F920F920FB60F921124C4
:100170008F939F93C79AC69A88E893E10197F1F706
:10018000C698C79880916000909161000196909305
:100190006100809360009F918F910F900FBE0F9030
:1001A0001F9018951F920F920FB60F9211248F93E4
:1001B0009F93C798C69A88E893E10197F1F7C6988C
:1001C000809160009091610001979093610080930D
:1001D00060009F918F910F900FBE0F901F90189508
:1001E00090B380B38160981739F481E090E09093E8
:1001F0006300809362000895109263001092620081
:060200000895F894FFCF01
:00000001FF
