:1000000012C019C018C017C016C015C014C013C044
:1000100012C011C010C017C00EC00DC00CC00BC064
:100020000AC009C008C011241FBECFE5D4E0DEBF5E
:10003000CDBF1ED02CC0E4CF10BC8CE089B98AB1F2
:1000400080698AB908951F920F920FB60F921124FA
:100050008F939F938CB1813B21F488B391E08927E2
:1000600088BB9F918F910F900FBE0F901F90189596
:1000700081E087BB85B78F7885BF7894DDDF85B752
:10008000806885BF889585B78F7785BFF8CFF8944E
:02009000FFCFA0
:00000001FF
