:1000000012C067C020C01FC01EC01DC01CC01BC0C6
:100010001AC019C018C017C016C015C014C013C02C
:1000200012C011C010C011241FBECFE5D4E0DEBF46
:10003000CDBF10E0A0E6B0E001C01D92A236B1072E
:10004000E1F71CD08CC0DCCF26B386B330E090E063
:100050008E7F2817390719F421E030E00DC026B350
:1000600086B330E090E08D7F2817390719F020E043
:1000700030E002C022E030E0C90108950F931F93E1
:10008000CF93DF9387B38C6187BB88B3836088BBD2
:100090008BB780648BBF85B7826085BF7894C8EAD0
:1000A000D1E609E110E0D0DF8130910511F4C29A68
:1000B00003C0029731F4C298C39ACE010197F1F7B9
:1000C000C39880E197E2F8013197F1F7019759F36E
:1000D000FACF1F920F920FB60F9211242F933F93D6
:1000E0004F935F936F937F938F939F93EF93FF93C0
:1000F000C29820E030E069E170E048EA51E60EC0C5
:1001000088E293E2FB013197F1F70197D9F7C39A9F
:10011000CA010197F1F7C3982F5F3F4F80916000AC
:1001200090916100281739075CF3C49A80E395E742
:1001300029E130E0F9013197F1F70197D9F7C49837
:10014000FF91EF919F918F917F916F915F914F916F
:100150003F912F910F900FBE0F901F901895F8941C
:02016000FFCFCF
:00000001FF
