:1000000012C044C020C01FC01EC01DC01CC01BC0E9
:100010001AC019C018C017C016C015C014C013C02C
:1000200012C011C010C011241FBECFE5D4E0DEBF46
:10003000CDBF10E0A0E6B0E001C01D92A236B1072E
:10004000E1F766D0B7C0DCCF26B386B330E090E0EE
:100050008E7F2817390759F026B386B330E090E039
:100060008D7F2817390731F422E030E005C021E008
:1000700030E002C020E030E0C9010895C59AC5987B
:100080001092610010926000C49A08951F920F921E
:100090000FB60F9211242F933F934F935F936F935B
:1000A0007F938F939F93AF93BF93EF93FF93F894B6
:1000B000C298C49880E090E012C02FE13FEB42E08C
:1000C000215030404040E1F700C00000C39AE7EA09
:1000D000F1E63197F1F700C00000C3980196209136
:1000E000600030916100821793073CF3C7DFFF91F6
:1000F000EF91BF91AF919F918F917F916F915F91A0
:100100004F913F912F910F900FBE0F901F90189518
:1001100087B38C6387BB88B3836088BBAFDF8BB743
:1001200080648BBF85B7826085BF78948DDF813016
:100130009105C9F4C29AC39A87EA91E60197F1F74B
:1001400000C00000C39880916000909161008336E8
:10015000910531F0809160009091610001961CC082
:1001600080E090E019C00297D9F4C298C39A87EA58
:1001700091E60197F1F700C00000C39880916000FC
:1001800090916100892B31F0809160009091610025
:10019000019702C083E690E0909361008093600035
:1001A0009FE621E181E0915020408040E1F700C0CE
:0801B0000000BBCFF894FFCF63
:00000001FF
