:1000000012C019C018C017C016C015C014C013C044
:1000100012C011C010C017C00EC00DC00CC00BC064
:100020000AC009C008C011241FBECFE5D4E0DEBF5E
:10003000CDBF1DD02BC0E4CF10BC89E189B98AB1F6
:1000400080698AB908951F920F920FB60F921124FA
:100050008F938CB1813B09F4C09A8CB1843809F438
:10006000C0988F910F900FBE0F901F90189581E050
:1000700087BB85B78F7885BF7894DEDF85B78068CA
:1000800085BF889585B78F7785BFF8CFF894FFCF68
:00000001FF
