:1000000014C023C022C021C020C01FC01EC01DC0FC
:100010001CC01BC01AC019C018C017C016C015C01C
:1000200014C013C012C039C010C011241FBECFE5C8
:10003000D2E0DEBFCDBF10E0A0E6B0E001C01D926F
:10004000AB3BB107E1F785D09BC0DACFCF93DF930D
:1000500020E030E0482F50E070E0C22FE22FDA01BC
:10006000022E02C0B595A7950A94E2F7A0FD922F43
:10007000DB0102C0B595A795EA95E2F7A0FDDC2F5C
:100080002F5F3F4F2530310541F7892F880F880FAB
:10009000890F8D0FDF91CF9108951F920F920FB6A8
:1000A0000F9211242F933F934F935F936F937F93FE
:1000B0008F939F93AF93BF93CF93EF93FF93F89456
:1000C0008BB3E09160009091610025E0E29FF00128
:1000D0001124E90FF11DEE59FF4F9081892B8BBB45
:1000E000C8B36091610080916000B0DF8C2B88BB49
:1000F00080916100982F9F5F90936100843061F43C
:100100001092610080916000982F9F5F9093600033
:10011000843011F4109260007894FF91EF91CF91A8
:10012000BF91AF919F918F917F916F915F914F910F
:100130003F912F910F900FBE0F901F90189583B78E
:100140008C6083BF81E68CBF89B7826089BF789459
:100150000895F5DFE6E6F0E08FE1DF0114978C9378
:10016000DF0113978C93DF0112978C93DF011197B6
:100170008C938083359690E0EF37F90771F7FFCFC6
:04018000F894FFCF21
:00000001FF
