:1000000014C023C022C021C020C01FC01EC01DC0FC
:100010001CC01BC01AC019C018C017C016C015C01C
:1000200014C013C012C011C010C011241FBECFE5F0
:10003000D2E0DEBFCDBF10E0A0E6B0E001C01D926F
:10004000AC3BB107E1F753D07EC0DACF8AB38FEF74
:100050008ABB97B387BB1BBA18BA83B78C6083BFC0
:1000600081E68CBF89B7826089BF109261001092CF
:1000700060000895CF9320E030E0C0E090E0482F8A
:1000800050E070E0822FE22FDA01022E02C0B59517
:10009000A7950A94E2F7A0FD922FDB0102C0B59567
:1000A000A795EA95E2F7A0FDC82F2F5F3F4F2530B7
:1000B000310541F7892F880F880F890F8C0FCF9159
:1000C000089595E0899FF0011124E60FF11DED5987
:1000D000FF4F80818BBB8091620088BB8F5F89312D
:1000E00018F4809362000895109262000895AEDFC4
:1000F000E7E6F0E08FEFDF0114978C93DF011397B1
:100100008C93DF0112978C93DF0111978C9380837E
:10011000359620E0E038F20771F712C06D2F8C2F72
:10012000D0DF8FE39DE023E0815090402040E1F755
:1001300000C00000DF5FD53089F7CF5FC53008F021
:0A014000C0E0D0E0EBCFF894FFCF51
:00000001FF
