:1000000014C02EC02DC02CC02BC02AC029C028C0AF
:1000100027C026C025C024C023C022C021C020C0C4
:100020001FC01EC01DC044C01BC011241FBECFE591
:10003000D2E0DEBFCDBF10E0A8E6B0E001C01D9267
:10004000A73CB107E1F710E0A0E6B0E0EEEBF6E187
:1000500002C005900D92A836B107D9F7BEDA2DCBB4
:10006000CFCFCF9320E030E0C0E090E0482F50E0C9
:1000700070E0822FE22FDA01022E02C0B595A7951B
:100080000A94E2F7A0FD922FDB0102C0B595A79577
:10009000EA95E2F7A0FDC82F2F5F3F4F25303105CD
:1000A00041F7892F880F880F890F8C0FCF91089502
:1000B0001F920F920FB60F9211242F933F934F93DD
:1000C0005F936F937F938F939F93AF93BF93CF93E0
:1000D000DF93EF93FF93F894809169006EE670E0F0
:1000E0002091680030E098E0899F200D311D112497
:1000F00040E050E029573F4F13C0DB01A80FB91F64
:10010000EF01C80FD91FC881CC93019685309105A6
:10011000A1F7485F5F4F6B5F7F4F4832510531F069
:10012000F901E40FF51F80E090E0E7CF8BB3E09199
:100130006C0090916D0025E0E29FF0011124E90F21
:10014000F11DE259FF4F9081892B8BBBC8B36091A1
:100150006D0080916C0085DF8C2B88BB80916D00D9
:10016000982F9F5F90936D00843061F410926D0022
:1001700080916C00982F9F5F90936C00843011F4F5
:1001800010926C007894FF91EF91DF91CF91BF9125
:10019000AF919F918F917F916F915F914F913F911F
:1001A0002F910F900FBE0F901F901895DC01EC91CE
:1001B00011968C91119798E0E99FF0011124E80FB6
:1001C000F11DE957FF4F21E030E012960C9002C07C
:1001D000220F331F0A94E2F78081822B80830895D7
:1001E000DC01EC9111968C91119798E0E99FF00158
:1001F0001124E80FF11DE957FF4F21E030E012967E
:100200000C9002C0220F331F0A94E2F720958081E0
:100210002823208308954F925F926F927F928F924E
:100220009F92AF92BF92CF92DF92EF92FF920F9385
:100230001F93CF93DF93EC0104E110E0412C512C8C
:10024000612C712CEE24E394F12C688170E080E045
:1002500090E085D74B015C016B8170E080E090E01D
:100260007ED7242D352D462D572D6FD69B01AC0101
:10027000C501B4011AD620E030E040E05FE315D6B6
:1002800091D4C62ED12C698170E080E090E067D7D0
:100290004B015C016C8170E080E090E060D7242D20
:1002A000352D462D572D51D69B01AC01C501B4010A
:1002B000FCD520E030E040E05FE3F7D573D483E085
:1002C000CC0CDD1C8A95E1F7C60ED11C87E890E0C6
:1002D000C80ED91E6A8170E080E090E040D74B01E3
:1002E0005C016D8170E080E090E039D7242D352DE0
:1002F000462D572D2AD69B01AC01C501B401D5D599
:1003000020E030E040E05FE3D0D54CD4F70102C0FC
:10031000EE0FFF1F6A95E2F7BF01F6018081862B81
:1003200080832DEC3CEC4CE45DE3642D752D862D33
:10033000972DBBD52B013C010150110909F085CF48
:10034000DF91CF911F910F91FF90EF90DF90CF90B1
:10035000BF90AF909F908F907F906F905F904F90E5
:1003600008954F925F926F927F928F929F92AF9279
:10037000BF92CF92DF92EF92FF920F931F93CF9392
:10038000DF93EC0104E110E0412C512C612C712C25
:10039000EE24E394F12C688170E080E090E0DFD6F9
:1003A0004B015C016B8170E080E090E0D8D6242D99
:1003B000352D462D572DC9D59B01AC01C501B40182
:1003C00074D520E030E040E05FE36FD5EBD3C62E7C
:1003D000D12C698170E080E090E0C1D64B015C01D6
:1003E0006C8170E080E090E0BAD6242D352D462D4A
:1003F000572DABD59B01AC01C501B40156D520E00A
:1004000030E040E05FE351D5CDD323E0CC0CDD1CE0
:100410002A95E1F7C60ED11C87E890E0C80ED91ED8
:100420006A8170E080E090E09AD64B015C016D81BA
:1004300070E080E090E093D6242D352D462D572D89
:1004400084D59B01AC01C501B4012FD520E030E07B
:1004500040E05FE32AD5A6D3F70102C0EE0FFF1FED
:100460006A95E2F7BF016095F60180816823608399
:100470002DEC3CEC4CE45DE3642D752D862D972D21
:1004800014D52B013C010150110909F084CFDF91F3
:10049000CF911F910F91FF90EF90DF90CF90BF9081
:1004A000AF909F908F907F906F905F904F90089546
:1004B000CF92DF92EF92CF93DF93CDB7DEB76897FD
:1004C0000FB6F894DEBF0FBECDBFFC012081318195
:1004D00042812B8B3C8B4D8BC380D480E580CE8AB0
:1004E000DF8AE88E2D873E874F87268137814085BA
:1004F000288B398B4A8B56818381580F8081581BFA
:1005000097818481980F8181981B80856581860FF2
:100510006281861BCF82D886E9865A879B878C8723
:1005200029833A834B835C839D838E83CE014396DC
:1005300072DECE010D966FDECE0107966CDECE0127
:10054000019669DE68960FB6F894DEBF0FBECDBF88
:10055000DF91CF91EF90DF90CF900895CF92DF920F
:10056000EF92CF93DF93CDB7DEB768970FB6F894CD
:10057000DEBF0FBECDBFFC012081318142812B8BBC
:100580003C8B4D8BC380D480E580CE8ADF8AE88E99
:100590002D873E874F87268137814085288B398B71
:1005A0004A8B56818381580F8081581B97818481A3
:1005B000980F8181981B80856581860F6281861BDB
:1005C000CF82D886E9865A879B878C8729833A838E
:1005D0004B835C839D838E83CE014396C2DECE0126
:1005E0000D96BFDECE010796BCDECE010196B9DEC8
:1005F00068960FB6F894DEBF0FBECDBFDF91CF91E6
:10060000EF90DF90CF900895FC018081E82FEF7389
:1006100082958695869583708230F9F0833019F043
:100620008130D9F50AC081E090E001C0880FEA95D9
:10063000EAF7582F27E830E02DC088E0E89FF00166
:100640001124E957FF4F8FEF808381838283838357
:1006500084838583868387830895F0E0E957FF4F7D
:100660008FEF80838087808B808F80A380A780AB73
:1006700080AF0895F901E80FF91F4081452B4083B1
:10068000019688309105B1F7285F3F4FE0E0273CA5
:100690003E0719F080E090E0EDCF0895FC018081E5
:1006A000E82FEF738295869586958370823001F1ED
:1006B000833019F08130D9F50CC081E090E00E2E26
:1006C00001C0880F0A94EAF7582F509527E830E0C8
:1006D0002BC088E0E89FF0011124E957FF4F1082FA
:1006E0001182128213821482158216821782089553
:1006F000F0E0E957FF4F10821086108A108E10A28A
:1007000010A610AA10AE0895F901E80FF91F408154
:1007100045234083019688309105B1F7285F3F4F0C
:10072000E0E0273C3E0719F080E090E0EDCF08952F
:100730000F931F93CF93DF9318160CF0A1C0709105
:100740006B00813009F042C0C7E0E62FF0E023C023
:100750004C2F50E09A012E1B3F0B03E0220F331F5A
:100760000A95E1F729573F4F83E0440F551F8A95BB
:10077000E1F749575F4F80E090E0D901A80FB91F1A
:100780007C91DA01A80FB91F7C93019688309105FE
:10079000A1F7C15078E0C617D8F680E010C028E075
:1007A000829FF0011124E957FF4F108211821282BB
:1007B000138214821582168217828F5F78E0861763
:1007C00070F370936B0080936A0005C18230B9F5B5
:1007D000A0E0462F50E01AC0272F30E0F901E41BBB
:1007E000F50BE80FF91FE957FF4FB081FC01E20F4D
:1007F000F31FE957FF4FB083715005C078E0E8E080
:10080000AE9FC0011124761738F7AF5FA830B0F360
:1008100040E012C0F8E04F9F9001112429573F4F4C
:1008200080E090E005C0F901E80FF91F1082019601
:100830008617C8F34F5F762F483060F31CC040E046
:1008400018C088E0489F9001112429573F4F80E04D
:1008500090E0F901E80FF91F5081062E01C0550FF5
:100860000A94EAF7508301968830910591F74F5F1B
:1008700078E0483030F370936B0040936A00ABC06F
:100880008F3F09F046C070916A00A0E0462F50E00B
:1008900088E090E0841B950BB8E0B61B33C0F901EB
:1008A000E40FF51FD3E0EE0FFF1FDA95E1F7E60F37
:1008B000F71FE957FF4FD081F90113E0EE0FFF1F3B
:1008C0001A95E1F7E60FF71FE957FF4FD08303C0F2
:1008D000C0E06A2F70E02C2F30E0CF5F2817390777
:1008E000F4F27B2F2A2F30E00AC0F90168E0769FEE
:1008F000E00DF11D1124E957FF4F10827F5F783022
:10090000A0F3AF5FA83020F3A0936B0070936A0050
:1009100062C070916B008E3FE1F5C0E0462F50E061
:1009200088E090E0841B950BD8E0D61B2BC0FD011E
:10093000E20FF31FE40FF51F0081260F371F295721
:100940003F4FF901008308C010E0F8E0CF9FB001ED
:100950001124DB01A957BF4F212F30E01F5F28175B
:1009600039072CF37D2F68E0C69F9001112407C042
:10097000F901E70FF11DE957FF4F10827F5F7830D3
:10098000B8F3CF5FC83000F370936B00C0936A0078
:1009900022C0A0E01AC088E0A89FA00111244957F6
:1009A0005F4F80E090E0FA01E80FF91F208130E00E
:1009B000062E02C0359527950A94E2F7208301960A
:1009C0008830910581F7AF5F78E0A83020F370930D
:1009D0006B00A0936A00DF91CF911F910F91089552
:1009E0000F931F93CF93DF9300D0CDB7DEB78C0169
:1009F0004A836983F5DB69814A81F80167FF0DC08D
:100A00006F3F19F48081841B0CC06E3F19F4818103
:100A1000841B0DC08281841B0EC0613021F4808153
:100A2000840F808309C0623021F48181840F818327
:100A300003C08281840F8283C8010F900F90DF91E1
:100A4000CF911F910F91B2CB0F931F93CF93DF9351
:100A5000EC01162F042F85DC402F612FCE01C0DF63
:100A6000402F612FCE010396BBDFCE01DF91CF91E6
:100A70001F910F91D0CBBF92CF92DF92EF92FF9256
:100A80000F931F93CF93DF93CDB7DEB768970FB661
:100A9000F894DEBF0FBECDBF8C01F62EB42E5EDD06
:100AA000F8012081318142812B8B3C8B4D8BC3809F
:100AB000D480E580CE8ADF8AE88E2D873E874F87F7
:100AC000268137814085288B398B4A8B56818381DB
:100AD000580F8081581B97818481980F8181981BC2
:100AE00080856581860F6281861BCF82D886E986E4
:100AF0005A879B878C8729833A834B835C839D83AA
:100B00008E834B2D6F2DCE0143969EDF4B2D6F2D87
:100B1000CE010D9699DF4B2D6F2DCE01079694DFF8
:100B20004B2D6F2DCE0101968FDFC801C1DC689679
:100B30000FB6F894DEBF0FBECDBFDF91CF911F91EE
:100B40000F91FF90EF90DF90CF90BF9008950F939B
:100B50001F93CF93DF931F92CDB7DEB78C016983CC
:100B60009DDDF8019081892F8F736981860F9295A1
:100B7000969596959370892B8083C8010F90DF918D
:100B8000CF911F910F9140CD83B78C6083BF81E6D9
:100B90008CBF89B7826089BF10926900109268008B
:100BA00078940895CF92DF92EF92FF920F931F9364
:100BB0006B017C0120E030E040E05FE4A6D287FDDD
:100BC0000CC020E030E040E05FE4C701B60193D103
:100BD0001ED38B019C01305805C0C701B60117D345
:100BE0008B019C01B801C9011F910F91FF90EF90FB
:100BF000DF90CF900895A4E0B0E0E0E0F6E00FC50C
:100C00007C016A01FC018081823008F44AC1FB0149
:100C10009081923008F442C1843079F4943009F024
:100C200040C1F7019181FB018181981709F439C115
:100C3000A0E6EA2EA0E0FA2E34C1943009F42EC1C9
:100C4000923091F4823009F02CC188E0F701DA018A
:100C500001900D928A95E1F7FB018181F701918165
:100C60008923FA0181831CC1823009F417C1F7017D
:100C700082819381FB01A281B381F70104811581F7
:100C800026813781FB0184809580A680B780FC0196
:100C9000EA1BFB0BAF01F7FF04C0442755274E1B8F
:100CA0005F0B403251050CF074C01E161F06B4F5E0
:100CB00024013501042E04C0769467945794479418
:100CC0000A94D2F749825A826B827C82412C512C41
:100CD0003201439404C0440C551C661C771C4A9591
:100CE000D2F741E0441A51086108710848205920A0
:100CF0006A207B20812C912C54018394452846281E
:100D0000472819F4812C912C540149805A806B801A
:100D10007C8084289528A628B72846C0EF2B09F4A4
:100D200043C0840F951F28013901042E04C0769416
:100D30006794579447940A94D2F749825A826B82F7
:100D40007C82412C512C3201439404C0440C551C2C
:100D5000661C771C4A95D2F741E0441A5108610895
:100D60007108402251226222732201E010E020E04B
:100D700030E045284628472819F400E010E09801A3
:100D800049805A806B807C800429152926293729BF
:100D90000BC0A817B90724F4812C912C540104C06E
:100DA000CD0100E010E09801F7014181FB01518184
:100DB000451709F446C0442349F024013501401A7F
:100DC000510A620A730A9301820104C008191909C1
:100DD0002A093B0937FD05C0F601118293838283FE
:100DE0000CC041E0F60141839383828330952095C6
:100DF000109501951F4F2F4F3F4F04831583268376
:100E000037830EC0880F991FAA1FBB1FF60184836A
:100E10009583A683B783828193810197938382838D
:100E2000F60184819581A681B781AC01BD01415055
:100E30005109610971094F3F5F4F6F4F7F4310F3B5
:100E40000CC0F601418393838283080D191D2A1D6E
:100E50003B1D048315832683378383E0F60180835B
:100E6000448155816681778177FF1AC0DB01CA0111
:100E700081709927AA27BB2776956795579547953F
:100E8000842B952BA62BB72B84839583A683B783BE
:100E90008281938101969383828302C07B0101C08A
:100EA0007601C7012496E0E1D6C3A0E2B0E0EAE50E
:100EB000F7E0C3C36D8F7E8F8F8F98A3298F3A8FF2
:100EC0004B8F5C8FBE016F5E7F4FCE014D96B5D2CA
:100ED000BE01675F7F4FCE014996AFD2AE014F5F33
:100EE0005F4FBE01675F7F4FCE01419684DEDBD14D
:100EF000A096E2E0BEC3A0E2B0E0E0E8F7E09DC368
:100F00006D8F7E8F8F8F98A3298F3A8F4B8F5C8F39
:100F1000BE016F5E7F4FCE014D968FD2BE01675FDF
:100F20007F4FCE01499689D28A8591E089278A87A9
:100F3000AE014F5F5F4FBE01675F7F4FCE014196AD
:100F40005ADEB1D1A096E2E094C3A0E2B0E0EAEAB2
:100F5000F7E065C36D8F7E8F8F8F98A3298F3A8FAF
:100F60004B8F5C8FBE016F5E7F4FCE014D9665D279
:100F7000BE01675F7F4FCE0149965FD2998992305B
:100F800008F412C08985823008F41AC0943021F424
:100F9000823009F4B4C008C0843021F4923009F4DE
:100FA000AEC00EC0923051F481E02A899A8529138F
:100FB00001C080E08A8BCE014196A3C0823051F4FB
:100FC00081E02A899A85291301C080E08A87CE01B1
:100FD000099697C08D889E88AF88B88C0D851E8530
:100FE0002F853889E0E2F0E080E090E0DC01C12C60
:100FF000D12C760140E050E0BA0180FE18C0400FCD
:10100000511F621F731F8C0D9D1DAE1DBF1D412CF6
:10101000512C32014394401751076207730718F0AF
:10102000412C512C3201840D951DA61DB71DCC0CF1
:10103000DD1CEE1CFF1C37FF02C06894C0F8000FD7
:10104000111F221F331FB694A7949794879431974A
:10105000A1F62B893C89EB85FC852E0F3F1F2E5F67
:101060003F4F3C832B8321E0EA893A85E31301C09B
:1010700020E02A83EB81FC810CC080FF05C07695BF
:101080006795579547957068B695A79597958795F5
:101090003196B7FDF2CF9F010CC0880F991FAA1F90
:1010A000BB1F77FD8160440F551F661F771F2150BE
:1010B00031090097A105E0E4BE0778F32B833C8358
:1010C0008C019D010F77112722273327003411054A
:1010D0002105310559F487FD09C0452B462B472BC7
:1010E00029F0805C9F4FAF4FBF4F80788D839E83E8
:1010F000AF83B88783E08983CE01019602C080E682
:1011000090E0D1D0A096E0E1A6C2A8E1B0E0EAE884
:10111000F8E093C26D8B7E8B8F8B988F298B3A8BE7
:101120004B8B5C8BBE01675F7F4FCE01459685D1AF
:10113000BE016F5F7F4FCE0141967FD1898582309E
:1011400050F08981823038F0BE016F5F7F4FCE0151
:101150000996E2D101C08FEF6896E2E08AC2A8E06A
:10116000B0E0E4EBF8E067C223E029838B019C0147
:10117000002737FD0395112722273327402F0A83A5
:10118000611571058105910519F482E0898334C0E8
:101190002EE130E03C832B83442371F0611571050F
:1011A000810520E8920761F1002711279801061BAD
:1011B000170B280B390B02C08B019C01C901B80128
:1011C00063D20197181619062CF00D831E832F8306
:1011D000388712C0082E04C0000F111F221F331FB2
:1011E0000A94D2F70D831E832F8338872EE130E0D7
:1011F000281B390B3C832B83CE01019654D004C0AD
:1012000060E070E080E09FEC2896E4E030C2ACE063
:10121000B0E0ECE0F9E00FC269877A878B879C87A2
:10122000BE016F5F7F4FCE01099607D18981823061
:1012300091F1823080F1843041F48A81882331F148
:1012400000E010E020E030E829C02B813C8137FD30
:1012500022C02F3131058CF78EE190E0821B930B79
:101260000D811E812F81388504C0369527951795ED
:1012700007958A95D2F78A81882381F03095209549
:10128000109501951F4F2F4F3F4F08C00FEF1FEFD5
:101290002FEF3FE703C000E010E09801B801C9015B
:1012A0002C96E4E0E4C10F931F93CF93DF93DC010E
:1012B00014964D915D916D917C9117971196EC91DB
:1012C00011978C91823020F460618FEF90E0A6C07E
:1012D000843009F49EC0823009F495C0411551054F
:1012E0006105710509F492C012962D913C911397F6
:1012F00022388FEF38070CF058C0C2E8DFEFC21B6E
:10130000D30BCA31D1056CF58A019B010C2E04C0A8
:1013100036952795179507950A94D2F781E090E0C6
:10132000A0E0B0E00C2E04C0880F991FAA1FBB1FBD
:101330000A94D2F70197A109B10984239523A62322
:10134000B72341E050E060E070E0892B8A2B8B2BC3
:1013500019F440E050E0BA01402B512B622B732B63
:1013600003C040E050E0BA01DB01CA018F77992742
:10137000AA27BB2780349105A105B10539F447FFA1
:1013800009C0405C5F4F6F4F7F4F04C0415C5F4FAF
:101390006F4F7F4F81E090E041155105610520E4DA
:1013A000720748F580E090E026C0203831058CF5C2
:1013B000DB01CA018F779927AA27BB2780349105C3
:1013C000A105B10539F447FF09C0405C5F4F6F4F7D
:1013D0007F4F04C0415C5F4F6F4F7F4F77FD04C06C
:1013E000C90181589F4F07C07695679557954795D6
:1013F000C90180589F4F97E0769567955795479517
:101400009A95D1F70BC080E090E005C080E090E0B5
:1014100005C08FEF90E040E050E0BA01982F96951C
:10142000E0FB97F9362F80FB37F9642F752F832F58
:10143000DF91CF911F910F910895CF92DF92EF929C
:10144000DC01FB01CC901196DC90119712968C91E7
:1014500012973FE7E32EE8226E2DA60170E0982F49
:10146000991F9927991F13962C91822F880F892BEA
:1014700090E027FB222720F92183009729F54115C9
:1014800051056105710511F482E027C082E89FEFE4
:101490009383828327E0440F551F661F771F2A9589
:1014A000D1F783E0808309C0440F551F661F771F63
:1014B0008281938101979383828341155105610550
:1014C00080E4780788F320C08F3F910579F44115B7
:1014D00051056105710519F484E0808319C0E4FEAB
:1014E00003C081E0808310C010820EC08F57910925
:1014F0009383828383E0808387E0440F551F661FB8
:10150000771F8A95D1F77064448355836683778308
:10151000EF90DF90CF900895CF93FC01DB01908195
:10152000923008F452C08C91823008F44EC094304E
:1015300071F4843039F411962C9130E08181281BAC
:10154000310948C08181882309F43FC03BC0843001
:1015500029F411968C91811138C034C0923019F45D
:101560008230B9F735C0823069F3C18111968C9110
:101570001197C8131DC02281338112968D919C91C1
:101580001397821793070CF413C0281739070CF42C
:1015900017C0448155816681778114968D919D9104
:1015A0000D90BC91A02D84179507A607B70718F4D6
:1015B000C11108C00AC0481759076A077B0740F4E1
:1015C000C11103C02FEF3FEF05C021E030E002C0A2
:1015D00020E030E0C901CF910895D6DAEEE8F0E0DE
:1015E0008FEFDF0117978C93DF0116978C93DF0144
:1015F00015978C93DF0114978C93DF0113978C93CD
:10160000DF0112978C93DF0111978C9380833896BA
:1016100090E0EE3CF90729F7FFCF2F923F924F92CF
:101620005F926F927F928F929F92AF92BF92CF9272
:10163000DF92EF92FF920F931F93CF93DF93CDB77B
:10164000DEB7CA1BDB0B0FB6F894DEBF0FBECDBFF3
:1016500009942A88398848885F846E847D848C84C4
:101660009B84AA84B984C884DF80EE80FD800C81CD
:101670001B81AA81B981CE0FD11D0FB6F894DEBFB0
:101680000FBECDBFED01089506D084FF0895CB01B4
:1016900002D0805F0895AA27992329F4A85F982B88
:1016A00011F480E10895903118F4AD5F9295A395FF
:0E16B000990FE8F78A2F99270895F894FFCF35
:0816BE00000000000000000024
:00000001FF
