:1000000012C019C018C017C016C015C014C013C044
:1000100012C011C010C00FC00EC00DC00CC00BC06C
:100020000AC009C008C011241FBECFE5D4E0DEBF5E
:10003000CDBF02D026C0E4CFB89AB99A8FEF88BB63
:1000400021E092E088B3822788BB3FE34DE083E064
:10005000315040408040E1F700C0000088B3822763
:1000600088BB88B3892788BB3FE34DE083E03150EC
:1000700040408040E1F700C0000088B3892788BB7A
:06008000E1CFF894FFCF70
:00000001FF
