:1000000014C02EC02DC02CC02BC02AC029C028C0AF
:1000100027C026C025C024C023C022C021C020C0C4
:100020001FC01EC01DC01CC01BC011241FBECFE5B9
:10003000D2E0DEBFCDBF10E0A0E6B0E0ECE8F2E039
:1000400002C005900D92A03BB107D9F711E0A0EBDB
:10005000B0E001C01D92A030B107E1F7D1D014C1CA
:10006000CFCFC29A000000000000C29808951ABACB
:10007000C098C19A01C0F5DFDF99FDCF8FEF8ABB31
:100080000895CF93DF931F92CDB7DEB78983EFDF5B
:1000900089818BBBC09AC1980F90DF91CF91E1CF3E
:1000A000CF93DF931F92CDB7DEB78983E0DF8981DD
:1000B0008BBBC098C198D5DF1BBA0F90DF91CF9151
:1000C00008958430A1F4613041F4473011F480E2A6
:1000D00023C04A3011F584E21FC06230F1F447308A
:1000E00011F488E219C04A30C1F48CE215C088309E
:1000F000A1F4613041F4473011F480E30DC04A307F
:1001000061F484E309C0623041F4473011F488E3BC
:1001100003C04A3011F48CE3C3CF08958FEF8ABB3C
:1001200087BB81E0BDDF83EF91E00197F1F700C06D
:10013000000088E3B5DF90E19A95F1F700C08FE009
:10014000AFDF80E18A95F1F700C00895CF93DF9388
:10015000A0EBB0E0FC01C8EDD0E088818D938191E7
:10016000899380E0A83DB807C1F781E099DF83EF6C
:1001700091E00197F1F700C0000080E891DFC0E056
:1001800002C07FDFCF5FEC2FF0E0E055FF4F8081B2
:100190008111F7CF80EC84DFC0E002C072DFCF5F57
:1001A000EC2FF0E0E852FF4F80818111F7CFDF9113
:1001B000CF910895805C74CFEF92FF921F93CF93FD
:1001C000DF9300D0CDB7DEB7880F880F880F698323
:1001D0007A83F0DF6981E62E7A81F72E18E0F70145
:1001E00081917F014EDF1150D1F780E80F900F9081
:1001F000DF91CF911F91FF90EF9052CF805850CF59
:100200008DDF68E970E080E0D7DF60E970E081E0D1
:10021000D3DF68E870E082E0CFDF60E870E083E081
:10022000CBDF68E770E084E0C7DF60E770E085E07F
:10023000C3DF68E670E086E0BFDF60E670E087E07D
:10024000BBDFC0E002C01DDFCF5FEC2FF0E0E05667
:10025000FF4F80818111F7CF80EC22DF1BBA80E154
:100260008A95F1F700C080E00CDF81E00ADF82E0D0
:1002700008DF83E006DF84E004DF85E002DF86E05C
:0C02800000DF87E0FEDEFFCFF894FFCF28
:10028C00001B1B00110A04000E1F1F1F1F1F1F1F26
:10029C000E1B1F1F1F1F1F1F0E1B111F1F1F1F1F9A
:1002AC000E1B11111F1F1F1F0E1B1111111F1F1FC2
:1002BC000E1B111111111F1F0E1B11111111111FEA
:1002CC0042617474657279206C6576656C733A0062
:00000001FF
