:1000000012C019C018C017C016C015C014C013C044
:1000100012C011C010C00FC00EC00DC00CC00BC06C
:100020000AC009C008C011241FBECFE5D4E0DEBF5E
:10003000CDBF02D042C0E4CF81E387BB8EE088BB56
:1000400040E050E020E030E0A9E1B0E064ED70E392
:10005000C09A88E293E2FD013197F1F70197D9F751
:10006000C0984F5F5F4F4C33510521F42F5F3F4FD6
:1000700040E050E02D30310511F420E030E04E3109
:10008000510549F42530310531F4C49ACB0101976B
:10009000F1F7C49803C0CB010197F1F796B386B38B
:1000A0008E60981731F4C59ACB010197F1F7C59886
:0E00B000CFCFCB010197F1F7CBCFF894FFCF64
:00000001FF
